:100000000C942A000C945F0B0C94920B0C94C50B6F
:100010000C9447000C9447000C945B080C94470028
:100020000C9447000C9447000C945B0A0C94EC0968
:100030000C9447000C9447000C9447000C94470024
:100040000C9447000C9447000C9447000C94470014
:100050000C94470011241FBECFE5D8E0DEBFCDBF12
:1000600011E0A0E6B0E0EEE1FEE402C005900D92E2
:10007000A83FB107D9F712E0A8EFB1E001C01D9287
:10008000A631B107E1F70E94581F0C940D270C947C
:100090000000EF92FF920F931F937B018C0120E0F1
:1000A00030E040E05FE40E94F50388238CF0C80153
:1000B000B70120E030E040E05FE40E94C1010E940F
:1000C000B3049B01AC01205030404040504806C072
:1000D000C801B7010E94B3049B01AC01B901CA0178
:1000E0001F910F91FF90EF900895A0E0B0E0EBE733
:1000F000F0E00C94D626DC012B01FA019C919230A1
:1001000008F439C1EB018881823008F433C194309E
:1001100069F4843009F02FC111969C91119789815F
:10012000981709F428C1A7ECB0E025C1843009F480
:1001300021C18230A9F4923009F01DC19A01AD01AC
:1001400088E0EA010990AE01E90109929E0181501F
:10015000C1F7E201898111969C918923818308C1AD
:10016000923009F407C112962D903C901397EB0141
:100170008A819B811496AD90BD90CD90DC901797AD
:10018000EC80FD800E811F819101281B390BB90184
:1001900037FF04C066277727621B730B6032710537
:1001A0000CF061C0121613066CF537014801062EDB
:1001B00004C096948794779467940A94D2F721E0C8
:1001C00030E040E050E004C0220F331F441F551FB1
:1001D0006A95D2F721503040404050402E213F21B7
:1001E00040235123211531054105510521F021E01E
:1001F00030E040E050E079018A01E628F72808293C
:1002000019293CC0232BD1F1260E371E350146019A
:10021000062E04C096948794779467940A94D2F734
:1002200021E030E040E050E004C0220F331F441FC3
:10023000551F6A95D2F721503040404050402A2146
:100240003B214C215D21211531054105510521F04E
:1002500021E030E040E050E059016A01A628B728CB
:10026000C828D9280BC0821593052CF01C01AA249C
:10027000BB24650103C0EE24FF24870111969C91E5
:10028000D20111968C91981709F445C0992339F041
:10029000A80197012A193B094C095D0906C0A6016E
:1002A00095012E193F09400B510B57FD08C01182D3
:1002B0003382228224833583468357831DC081E0A5
:1002C00081833382228288279927DC01821B930B4A
:1002D000A40BB50B84839583A683B7830DC0220F2F
:1002E000331F441F551F24833583468357838281E0
:1002F000938101979383828324813581468157813D
:10030000DA01C9010197A109B1098F5F9F4FAF4F72
:10031000BF4328F30BC0918333822282EA0CFB1C7B
:100320000C1D1D1DE482F5820683178383E0808304
:10033000248135814681578157FF1AC0C901AA27F8
:1003400097FDA095BA2F81709070A070B0705695EF
:10035000479537952795822B932BA42BB52B848318
:100360009583A683B7838281938101969383828349
:10037000DF0101C0D201CD01CDB7DEB7E2E10C94BF
:10038000F226A0E2B0E0E7ECF1E00C94E22669830B
:100390007A838B839C832D833E834F835887E9E048
:1003A000EE2EF12CEC0EFD1ECE010196B7010E943F
:1003B000A4068E010F5E1F4FCE010596B8010E9464
:1003C000A4068A8991E089278A8BC701B801AE010A
:1003D000475E5F4F0E9475000E94CF05A096E6E041
:1003E0000C94FE26A0E2B0E0E8EFF1E00C94E226E7
:1003F00069837A838B839C832D833E834F835887C5
:10040000F9E0EF2EF12CEC0EFD1ECE010196B701A6
:100410000E94A4068E010F5E1F4FCE010596B80103
:100420000E94A406C701B801AE01475E5F4F0E945B
:1004300075000E94CF05A096E6E00C94FE26A0E28F
:10044000B0E0E5E2F2E00C94D62669837A838B83F0
:100450009C832D833E834F835887CE010196BE0136
:10046000675F7F4F0E94A406CE010596BE016F5EB6
:100470007F4F0E94A4069985923088F08989823046
:10048000C8F0943019F4823051F404C0843029F457
:10049000923081F487EC90E0C6C0923049F420E0BD
:1004A0009A858A89981321E02A87CE010996BBC0D4
:1004B000823049F420E09A858A89981321E02A8BBA
:1004C000CE014196B0C02D843E844F8458886D88FB
:1004D0007E888F88988CEE24FF248701AA24BB2471
:1004E000650140E050E060E070E0E0E0F0E0C10174
:1004F00081709070892BE9F0E60CF71C081D191D1E
:100500009A01AB012A0D3B1D4C1D5D1D80E090E062
:10051000A0E0B0E0E614F7040805190520F481E036
:1005200090E0A0E0B0E0BA01A901480F591F6A1F8E
:100530007B1FAA0CBB1CCC1CDD1C97FE08C081E0F5
:1005400090E0A0E0B0E0A82AB92ACA2ADB2A3196B6
:10055000E032F10549F0660C771C881C991C569412
:10056000479437942794C3CFFA85EA892B893C892D
:100570008B859C85280F391F2E5F3F4F17C0CA01FE
:1005800081709070892B61F016950795F794E79428
:1005900080E090E0A0E0B0E8E82AF92A0A2B1B2BC3
:1005A00076956795579547952F5F3F4F77FDE7CF36
:1005B0000CC0440F551F661F771F17FD4160EE0CDE
:1005C000FF1C001F111F21503040403090E05907A0
:1005D00090E0690790E4790760F32B8F3C8FDB0193
:1005E000CA018F779070A070B07080349105A1051A
:1005F000B10561F447FD0AC0E114F10401051105DC
:1006000029F0405C5F4F6F4F7F4F40781A8EFE1786
:1006100011F081E08A8F4D8F5E8F6F8F78A383E01A
:10062000898FCE0149960E94CF05A096E2E10C94F5
:10063000F226A8E1B0E0EFE1F3E00C94DE26698356
:100640007A838B839C832D833E834F835887B9E0C5
:10065000EB2EF12CEC0EFD1ECE010196B7010E948F
:10066000A4068E010F5E1F4FCE010596B8010E94B1
:10067000A4062985223008F47EC03989323010F46E
:10068000B8017CC08A859A8989278A87243011F02D
:10069000223031F4231709F06EC067EC70E06EC0B1
:1006A000343039F41D861E861F86188A1C861B86E8
:1006B00004C0323021F484E08987B7015FC02B8504
:1006C0003C858B899C89281B390B3C872B87ED84C3
:1006D000FE840F851889AD88BE88CF88D88CEA142F
:1006E000FB040C051D0540F4EE0CFF1C001F111F40
:1006F000215030403C872B8720E030E040E050E044
:1007000080E090E0A0E0B0E460E070E0EA14FB0478
:100710000C051D0540F0282B392B4A2B5B2BEA18C2
:10072000FB080C091D09B695A79597958795EE0CC2
:10073000FF1C001F111F6F5F7F4F6F31710531F775
:10074000DA01C9018F779070A070B0708034910584
:10075000A105B10561F427FD0AC0E114F10401050A
:10076000110529F0205C3F4F4F4F5F4F20782D87B8
:100770003E874F87588BBE01675F7F4FCB010E943A
:10078000CF056896EAE00C94FA26A8E1B0E0EBEC1D
:10079000F3E00C94E22669837A838B839C832D8318
:1007A0003E834F83588789E0E82EF12CEC0EFD1E26
:1007B000CE010196B7010E94A4068E010F5E1F4F65
:1007C000CE010596B8010E94A4068985823040F0CA
:1007D0008989823028F0C701B8010E941C0701C036
:1007E0008FEF6896E6E00C94FE26A8E1B0E0EBEF10
:1007F000F3E00C94E22669837A838B839C832D83B8
:100800003E834F83588789E0E82EF12CEC0EFD1EC5
:10081000CE010196B7010E94A4068E010F5E1F4F04
:10082000CE010596B8010E94A4068985823040F069
:100830008989823028F0C701B8010E941C0701C0D5
:100840008FEF6896E6E00C94FE26A8E1B0E0EBE2BC
:10085000F4E00C94E22669837A838B839C832D8356
:100860003E834F83588789E0E82EF12CEC0EFD1E65
:10087000CE010196B7010E94A4068E010F5E1F4FA4
:10088000CE010596B8010E94A4068985823040F009
:100890008989823028F0C701B8010E941C0701C075
:1008A00081E06896E6E00C94FE26A8E0B0E0EBE577
:1008B000F4E00C94DF269B01AC0183E08983DA012C
:1008C000C9018827B7FD83959927AA27BB27B82E8A
:1008D000211531054105510519F482E089833AC09B
:1008E0008823A9F0203080E0380780E0480780E8BE
:1008F000580729F460E070E080E09FEC30C0EE24FF
:10090000FF248701E21AF30A040B150B02C07901D8
:100910008A018EE1C82ED12CDC82CB82ED82FE8250
:100920000F831887C801B7010E9480050197181628
:10093000190684F4082E04C0EE0CFF1C001F111FC2
:100940000A94D2F7ED82FE820F831887C81AD90A5B
:10095000DC82CB82BA82CE0101960E94CF05289616
:10096000E9E00C94FB26ACE0B0E0E9EBF4E00C9499
:10097000E62669837A838B839C83CE010196BE0130
:100980006B5F7F4F0E94A4068D81823061F18230BF
:1009900050F1843021F48E81882351F12EC02F81B3
:1009A000388537FD20C06E812F3131051CF066235C
:1009B000F9F023C08EE190E0821B930B29853A85E4
:1009C0004B855C8504C056954795379527958A9544
:1009D000D2F76623B1F050954095309521953F4F61
:1009E0004F4F5F4F0EC020E030E040E050E009C0C4
:1009F0002FEF3FEF4FEF5FE704C020E030E040E033
:100A000050E8B901CA012C96E2E00C940227A8E054
:100A1000B0E0EDE0F5E00C94DE267B018C01611581
:100A200071058105910519F482E0898360C083E036
:100A300089838EE1C82ED12CDC82CB82ED82FE82AE
:100A40000F831887C801B7010E948005FC01319708
:100A5000F7FF3BC0222733272E1B3F0B57016801AE
:100A6000022E04C0D694C794B794A7940A94D2F7E0
:100A700040E050E060E070E081E090E0A0E0B0E0B5
:100A800004C0880F991FAA1FBB1F2A95D2F7019790
:100A9000A109B1098E219F21A023B1230097A105AF
:100AA000B10521F041E050E060E070E04A295B29A7
:100AB0006C297D294D835E836F8378878EE190E07A
:100AC0008E1B9F0B9C838B8312C0309781F00E2E60
:100AD00004C0EE0CFF1C001F111F0A94D2F7ED8218
:100AE000FE820F831887CE1ADF0ADC82CB821A823D
:100AF000CE0101960E94CF052896EAE00C94FA26D2
:100B0000EF92FF920F931F937B018C0180E0E81618
:100B100080E0F80681E0080780E0180788F48FEF8E
:100B2000E816F1040105110531F028F088E090E0A5
:100B3000A0E0B0E017C080E090E0A0E0B0E012C01C
:100B400080E0E81680E0F80680E0080781E01807FA
:100B500028F088E190E0A0E0B0E004C080E190E0FF
:100B6000A0E0B0E020E230E040E050E0281B390B8C
:100B70004A0B5B0B04C016950795F794E7948A958A
:100B8000D2F7F701E153FF4F8081281B310941095A
:100B90005109C9011F910F91FF90EF900895DF92C5
:100BA000EF92FF920F931F93FC01E480F580068182
:100BB0001781D1808081823048F480E090E0A0E10C
:100BC000B0E0E82AF92A0A2B1B2BA5C0843009F4CF
:100BD0009FC0823021F4EE24FF24870105C0E11478
:100BE000F1040105110519F4E0E0F0E096C062811E
:100BF00073819FEF623879070CF05BC022E83FEF0A
:100C0000261B370B2A3131052CF020E030E040E084
:100C100050E02AC0B801A701022E04C0769567955E
:100C2000579547950A94D2F781E090E0A0E0B0E0B4
:100C300004C0880F991FAA1FBB1F2A95D2F70197DE
:100C4000A109B1098E219F21A023B1230097A105FD
:100C5000B10521F081E090E0A0E0B0E09A01AB01A5
:100C6000282B392B4A2B5B2BDA01C9018F77907027
:100C7000A070B07080349105A105B10539F427FF4B
:100C800009C0205C3F4F4F4F5F4F04C0215C3F4F76
:100C90004F4F5F4FE0E0F0E02030A0E03A07A0E0E7
:100CA0004A07A0E45A0710F0E1E0F0E079018A0178
:100CB00027C06038710564F5FB01E158FF4FD8018A
:100CC000C7018F779070A070B07080349105A10536
:100CD000B10539F4E7FE0DC080E490E0A0E0B0E09B
:100CE00004C08FE390E0A0E0B0E0E80EF91E0A1F18
:100CF0001B1F17FF05C016950795F794E7943196CB
:100D000087E016950795F794E7948A95D1F705C083
:100D1000EE24FF248701EFEFF0E06E2F6795662742
:100D20006795902F9F77D794DD24D7948E2F869543
:100D3000492F462B582F5D29B701CA011F910F91EA
:100D4000FF90EF90DF900895FC01DB01408151811D
:100D50002281622F6F7770E0221F2227221F93814A
:100D6000892F880F822B282F30E0991F9927991FF0
:100D700011969C93119721153105A9F5411551053F
:100D80006105710511F482E037C082E89FEF139688
:100D90009C938E9312979A01AB0167E0220F331F49
:100DA000441F551F6A95D1F783E08C930DC0220F25
:100DB000331F441F551F12968D919C9113970197D5
:100DC00013969C938E931297203080E0380780E032
:100DD000480780E4580758F314962D933D934D939C
:100DE0005C93179708952F3F310579F4411551050C
:100DF0006105710519F484E08C93089564FF03C0C4
:100E000081E08C9312C01C9210C02F573040139673
:100E10003C932E93129783E08C9387E0440F551FE9
:100E2000661F771F8A95D1F7706414964D935D9372
:100E30006D937C93179708951F93DC01FB019C91A0
:100E4000923008F447C08081823008F443C0943067
:100E500051F411961C91843099F58181682F70E0CE
:100E6000611B71093FC0843021F0923031F482302F
:100E7000B9F18181882389F12DC011961C911197B8
:100E80008230F1F081811817D9F412962D913C919E
:100E90001397828193818217930794F0281739075B
:100EA000BCF014968D919D910D90BC91A02D248144
:100EB000358146815781281739074A075B0718F49F
:100EC000112341F00AC082179307A407B50740F425
:100ED000112319F061E070E005C06FEF7FEF02C0F1
:100EE00060E070E0CB011F910895DF93CF93CDB701
:100EF000DEB7A1E4B0E0E1E4F0E0808188608C93AB
:100F0000CF91DF910895DF93CF93CDB7DEB7A1E402
:100F1000B0E0E1E4F0E0808188618C93E1E4F0E00E
:100F20001082CF91DF910895DF93CF930F92CDB7C9
:100F3000DEB789838981883078F4A1E4B0E0E1E408
:100F4000F0E08081887F8C93A1E4B0E0E1E4F0E000
:100F500090818981892B8C930F90CF91DF91089597
:100F6000DF93CF93CDB7DEB7A895CF91DF910895EA
:100F7000DF93CF93CDB7DEB7AFE4B0E0EFE4F0E0BE
:100F800080818E7F8C93AFE4B0E0EFE4F0E080816D
:100F90008D7F8C93AEE4B0E0EEE4F0E08081877F5B
:100FA0008C93AEE4B0E0EEE4F0E080818F7E8C9331
:100FB000AEE4B0E0EEE4F0E080818E7F8C93AEE4AE
:100FC000B0E0EEE4F0E080818D7F8C93AEE4B0E0A1
:100FD000EEE4F0E0808184608C93CF91DF910895FE
:100FE000DF93CF93CDB7DEB7AEE4B0E0EEE4F0E050
:100FF000808180648C93CF91DF910895DF93CF93AC
:10100000CDB7DEB7A9E5B0E0E9E5F0E08081806228
:101010008C93CF91DF910895DF93CF93CDB7DEB757
:10102000A9E5B0E0E9E5F0E080818F7D8C93CF9178
:10103000DF910895DF93CF9300D00F92CDB7DEB745
:1010400089838981282F30E03B832A838A819B8191
:10105000009731F02A813B812130310549F00FC0E2
:10106000AEE4B0E0EEE4F0E080818F7B8C9307C0CB
:10107000AEE4B0E0EEE4F0E0808180648C930F9009
:101080000F900F90CF91DF910895DF93CF9300D011
:10109000CDB7DEB79A83898389819A81009731F031
:1010A00089819A819093F9018093F8010F900F90B4
:1010B000CF91DF9108951F920F920FB60F921124D6
:1010C0002F933F934F935F936F937F938F939F9350
:1010D000AF93BF93EF93FF93DF93CF93CDB7DEB77B
:1010E0008091F8019091F901009729F0E091F801C1
:1010F000F091F9010995CF91DF91FF91EF91BF91A7
:10110000AF919F918F917F916F915F914F913F919F
:101110002F910F900FBE0F901F901895DF93CF93D4
:10112000CDB7DEB7E6E4F0E080819181CF91DF9129
:101130000895DF93CF93CDB7DEB7A3E5B0E0E3E545
:10114000F0E0808180648C93A3E5B0E0E3E5F0E01B
:10115000808188608C93A3E5B0E0E3E5F0E08081D6
:101160008F7B8C93A3E5B0E0E3E5F0E08081877F9F
:101170008C93CF91DF910895DF93CF93CDB7DEB7F6
:10118000A3E5B0E0E3E5F0E08081887F8C93A3E500
:10119000B0E0E3E5F0E0808184608C93CF91DF9153
:1011A0000895DF93CF93CDB7DEB7A3E5B0E0E3E5D5
:1011B000F0E08081887F8C93CF91DF910895DF9359
:1011C000CF93CDB7DEB7A5970FB6F894DEBF0FBEAD
:1011D000CDBF6D8F7E8F8F8F98A3CE0109969AA376
:1011E00089A3E3EDF1E0FCA3EBA3F4E1FDA3EBA104
:1011F000FCA100808BA19CA101969CA38BA3E9A1DB
:10120000FAA1008289A19AA101969AA389A39DA11E
:1012100091509DA3EDA1EE2351F78D899E89AF8951
:10122000B88DBC01CD010E940705DC01CB01BC01DA
:10123000CD0120E030E040E851E40E941903DC01D8
:10124000CB018D839E83AF83B8878D8D9E8DAF8DAF
:10125000B8A128EE33E040E050E0BC01CD010E948F
:101260005A26DC01CB01BC01CD010E940705DC013F
:10127000CB01BC01CD012D813E814F8158850E945B
:101280001903DC01CB01BC01CD010E944900DC0146
:10129000CB0189839A83AB83BC83A5960FB6F89460
:1012A000DEBF0FBECDBFCF91DF910895DF93CF9307
:1012B0000F92CDB7DEB78983A9E5B0E0E9E5F0E0AC
:1012C0008081482F8981282F30E081E090E0022E34
:1012D00002C0880F991F0A94E2F7842B8C930F9019
:1012E000CF91DF910895DF93CF9300D00F92CDB7C8
:1012F000DEB789838981282F30E03B832A838A8166
:101300009B81009731F02A813B812130310549F0E2
:101310000FC0A9E5B0E0E9E5F0E080818E7F8C9315
:1013200007C0A9E5B0E0E9E5F0E080818D7F8C930E
:10133000A9E5B0E0E9E5F0E08081482F8981282F18
:1013400030E081E090E0022E02C0880F991F0A94DD
:10135000E2F7809584238C930F900F900F90CF919C
:10136000DF910895DF93CF9300D000D00F92CDB7D7
:10137000DEB79A8389836B838B81282F30E03D838E
:101380002C838C819D81009731F02C813D8121300F
:10139000310541F00DC089819A81909303028093B9
:1013A000020206C089819A8190930502809304020B
:1013B0008B81882F90E0880F991FFC01EE5FFD4F15
:1013C00089819A81918380830F900F900F900F9065
:1013D0000F90CF91DF9108951F920F920FB60F9249
:1013E00011242F933F934F935F936F937F938F932A
:1013F0009F93AF93BF93EF93FF93DF93CF93CDB7BB
:10140000DEB78091060290910702A0910802B09188
:1014100009020196A11DB11D809306029093070257
:10142000A0930802B09309022091060230910702AE
:1014300040910802509109028091FA019091FB01BC
:10144000A091FC01B091FD01281739074A075B07FD
:10145000A1F4E2E5F0E08091FE019091FF01A091FE
:101460000002B091010281958083109206021092D1
:1014700007021092080210920902809102029091D4
:101480000302009729F0E0910202F091030209950E
:10149000CF91DF91FF91EF91BF91AF919F918F918C
:1014A0007F916F915F914F913F912F910F900FBE60
:1014B0000F901F9018951F920F920FB60F92112444
:1014C000DF93CF93CDB7DEB7CF91DF910F900FBEF3
:1014D0000F901F901895DF93CF93CDB7DEB7789418
:1014E000CF91DF910895DF93CF93CDB7DEB7F89416
:1014F000CF91DF910895DF93CF9300D000D0CDB787
:10150000DEB789836A838A81833008F072C089815B
:10151000282F30E03C832B838B819C818630910582
:1015200059F02B813C8127303105B1F08B819C81B2
:101530008530910541F144C0A5E5B0E0E5E5F0E076
:1015400080818C7F8C93A5E5B0E0E5E5F0E09081AB
:101550008A81892B8C9334C0A5E5B0E0E5E5F0E005
:101560008081837F8C93A5E5B0E0E5E5F0E08081A4
:10157000282F8A81882F90E0880F991F880F991F44
:10158000822B8C931DC0A4E5B0E0E4E5F0E08081FF
:101590008F7B8C93A4E5B0E0E4E5F0E08081282F18
:1015A0008A81882F90E081709070002496958795AD
:1015B0000794969587950794982F802D822B8C936E
:1015C00089818530B0F08981883098F4ABE5B0E04E
:1015D000EBE5F0E08081482F8981282F30E081E021
:1015E00090E0022E02C0880F991F0A94E2F7842B24
:1015F0008C930F900F900F900F90CF91DF910895E3
:10160000DF93CF930F92CDB7DEB789838981853081
:10161000B8F089818830A0F4ABE5B0E0EBE5F0E00C
:101620008081482F8981282F30E081E090E0022ED0
:1016300002C0880F991F0A94E2F7809584238C9347
:101640000F90CF91DF910895DF93CF9300D000D01A
:101650000F92CDB7DEB79A8389836B838B81282F56
:1016600030E03D832C838C819D818630910559F03B
:101670002C813D812730310569F08C819D81853039
:10168000910579F014C089819A8190930B0280931F
:101690000A020DC089819A8190930D0280930C02F9
:1016A00006C089819A8190930F0280930E020F9059
:1016B0000F900F900F900F90CF91DF9108951F9290
:1016C0000F920FB60F9211242F933F934F935F9376
:1016D0006F937F938F939F93AF93BF93EF93FF93FA
:1016E000DF93CF93CDB7DEB780910A0290910B02C2
:1016F000009729F0E0910A02F0910B020995CF9131
:10170000DF91FF91EF91BF91AF919F918F917F9169
:101710006F915F914F913F912F910F900FBE0F905E
:101720001F9018951F920F920FB60F9211242F93AE
:101730003F934F935F936F937F938F939F93AF9359
:10174000BF93EF93FF93DF93CF93CDB7DEB7809135
:101750000C0290910D02009729F0E0910C02F0919B
:101760000D020995CF91DF91FF91EF91BF91AF915C
:101770009F918F917F916F915F914F913F912F91A9
:101780000F900FBE0F901F9018951F920F920FB6DB
:101790000F9211242F933F934F935F936F937F93F7
:1017A0008F939F93AF93BF93EF93FF93DF93CF9369
:1017B000CDB7DEB780910E0290910F02009729F00D
:1017C000E0910E02F0910F020995CF91DF91FF9108
:1017D000EF91BF91AF919F918F917F916F915F91A9
:1017E0004F913F912F910F900FBE0F901F90189522
:1017F000DF93CF93CDB7DEB72D970FB6F894DEBF4A
:101800000FBECDBF89836A834B838981282F30E047
:101810003D872C878C859D858230910509F450C0C9
:101820002C853D852330310534F48C859D858130B0
:10183000910571F0ECC02C853D852330310509F40C
:1018400077C08C859D858430910509F4A9C0DFC0DF
:101850008B81282F30E03B872A878A859B850097DC
:1018600031F02A853B8521303105B1F0D0C0AAE3A3
:10187000B0E0EAE3F0E08081482F8A81282F30E051
:1018800081E090E0022E02C0880F991F0A94E2F7CF
:10189000809584238C93BBC0AAE3B0E0EAE3F0E038
:1018A0008081482F8A81282F30E081E090E0022E4D
:1018B00002C0880F991F0A94E2F7842B8C93A7C06B
:1018C0008B81282F30E03987288788859985009774
:1018D00031F02885398521303105B1F098C0A7E372
:1018E000B0E0E7E3F0E08081482F8A81282F30E0E4
:1018F00081E090E0022E02C0880F991F0A94E2F75F
:10190000809584238C9383C0A7E3B0E0E7E3F0E005
:101910008081482F8A81282F30E081E090E0022EDC
:1019200002C0880F991F0A94E2F7842B8C936FC032
:101930008B81282F30E03F832E838E819F810097FB
:1019400031F02E813F8121303105B1F060C0A4E338
:10195000B0E0E4E3F0E08081482F8A81282F30E076
:1019600081E090E0022E02C0880F991F0A94E2F7EE
:10197000809584238C934BC0A4E3B0E0E4E3F0E0D3
:101980008081482F8A81282F30E081E090E0022E6C
:1019900002C0880F991F0A94E2F7842B8C9337C0FA
:1019A0008B81282F30E03D832C838C819D81009793
:1019B00031F02C813D8121303105B1F028C0A1E307
:1019C000B0E0E1E3F0E08081482F8A81282F30E009
:1019D00081E090E0022E02C0880F991F0A94E2F77E
:1019E000809584238C9313C0A1E3B0E0E1E3F0E0A1
:1019F0008081482F8A81282F30E081E090E0022EFC
:101A000002C0880F991F0A94E2F7842B8C932D96BD
:101A10000FB6F894DEBF0FBECDBFCF91DF91089512
:101A2000DF93CF93CDB7DEB72D970FB6F894DEBF17
:101A30000FBECDBF89836A834B838981282F30E015
:101A40003D872C878C859D858230910509F450C097
:101A50002C853D852330310534F48C859D8581307E
:101A6000910571F0EBC02C853D852330310509F4DB
:101A700077C08C859D858430910509F4A9C0DEC0AE
:101A80008B81282F30E03B872A878A859B850097AA
:101A9000D1F02A853B852130310509F0CFC0ABE379
:101AA000B0E0EBE3F0E08081482F8A81282F30E01E
:101AB00081E090E0022E02C0880F991F0A94E2F79D
:101AC000842B8C93BBC0ABE3B0E0EBE3F0E0808110
:101AD000482F8A81282F30E081E090E0022E02C05A
:101AE000880F991F0A94E2F7809584238C93A6C0EF
:101AF0008B81282F30E03987288788859985009742
:101B0000D1F0288539852130310509F097C0A8E347
:101B1000B0E0E8E3F0E08081482F8A81282F30E0B0
:101B200081E090E0022E02C0880F991F0A94E2F72C
:101B3000842B8C9383C0A8E3B0E0E8E3F0E08081DD
:101B4000482F8A81282F30E081E090E0022E02C0E9
:101B5000880F991F0A94E2F7809584238C936EC0B6
:101B60008B81282F30E03F832E838E819F810097C9
:101B7000D1F02E813F812130310509F05FC0A5E30E
:101B8000B0E0E5E3F0E08081482F8A81282F30E043
:101B900081E090E0022E02C0880F991F0A94E2F7BC
:101BA000842B8C934BC0A5E3B0E0E5E3F0E08081AB
:101BB000482F8A81282F30E081E090E0022E02C079
:101BC000880F991F0A94E2F7809584238C9336C07E
:101BD0008B81282F30E03D832C838C819D81009761
:101BE000C9F02C813D812130310541F5A2E3B0E0FF
:101BF000E2E3F0E08081482F8A81282F30E081E005
:101C000090E0022E02C0880F991F0A94E2F7842BFD
:101C10008C9314C0A2E3B0E0E2E3F0E08081482FAF
:101C20008A81282F30E081E090E0022E02C0880FE8
:101C3000991F0A94E2F7809584238C932D960FB612
:101C4000F894DEBF0FBECDBFCF91DF910895DF9333
:101C5000CF9300D000D000D0CDB7DEB789836A83A0
:101C60005C834B838981282F30E03E832D834D8117
:101C70005E814230510559F18D819E8183309105FD
:101C800034F42D813E812130310569F05BC04D81F6
:101C90005E814330510579F18D819E8184309105BB
:101CA00009F43DC04FC0E9E3F0E08081282F30E027
:101CB0008A81882F90E0A90102C0559547958A95A1
:101CC000E2F7CA018170EB81FC8180833BC0E6E3CF
:101CD000F0E08081282F30E08A81882F90E0A901F0
:101CE00002C0559547958A95E2F7CA018170EB814C
:101CF000FC81808327C0E3E3F0E08081282F30E07F
:101D00008A81882F90E0A90102C0559547958A9550
:101D1000E2F7CA018170EB81FC81808313C0E0E3AC
:101D2000F0E08081282F30E08A81882F90E0A9019F
:101D300002C0559547958A95E2F7CA018170EB81FB
:101D4000FC81808326960FB6F894DEBF0FBECDBF10
:101D5000CF91DF910895DF93CF9300D000D0CDB71E
:101D6000DEB789836A838981282F30E03C832B8307
:101D70008B819C818230910551F12B813C812330F4
:101D8000310534F48B819C818130910561F05AC01A
:101D90002B813C812330310571F18B819C81843012
:101DA0009105E9F14FC0ABE3B0E0EBE3F0E08081F7
:101DB000482F8A81282F30E081E090E0022E02C077
:101DC000880F991F0A94E2F784278C933BC0A8E3FD
:101DD000B0E0E8E3F0E08081482F8A81282F30E0EE
:101DE00081E090E0022E02C0880F991F0A94E2F76A
:101DF00084278C9327C0A5E3B0E0E5E3F0E0808181
:101E0000482F8A81282F30E081E090E0022E02C026
:101E1000880F991F0A94E2F784278C9313C0ABE3D1
:101E2000B0E0EBE3F0E08081482F8A81282F30E09A
:101E300081E090E0022E02C0880F991F0A94E2F719
:101E400084278C930F900F900F900F90CF91DF917C
:101E50000895DF93CF9300D0CDB7DEB789836A832F
:101E6000A6E2B0E0E6E2F0E08081887F8C93A6E213
:101E7000B0E0E6E2F0E090818981892B8C93A7E2C3
:101E8000B0E0E7E2F0E080818F7D8C93A6E2B0E0E5
:101E9000E6E2F0E08081877F8C93A6E2B0E0E6E2A4
:101EA000F0E080818F7D8C93A7E2B0E0E7E2F0E084
:101EB00080818F738C93A7E2B0E0E7E2F0E080814D
:101EC000282F8A81882F90E0002496958795079483
:101ED000969587950794982F802D822B8C93A6E258
:101EE000B0E0E6E2F0E0808180688C930F900F9084
:101EF000CF91DF910895DF93CF930F92CDB7DEB7E7
:101F00008983A7E2B0E0E7E2F0E08081807E8C93F5
:101F1000A7E2B0E0E7E2F0E090818981892B8C9321
:101F2000A6E2B0E0E6E2F0E0808180648C93E6E235
:101F3000F0E0808182958F70882F90E081709070A2
:101F40000097A9F3E4E2F0E0808191810F90CF91B6
:101F5000DF910895DF93CF93CDB7DEB782E060E0E5
:101F600041E00E94F80BCF91DF910895DF93CF936A
:101F7000CDB7DEB782E060E041E00E94100DCF9166
:101F8000DF910895DF93CF93CDB7DEB782E060E0B5
:101F900040E00E94100DCF91DF910895DF93CF9321
:101FA00000D0CDB7DEB789836A8389816A8141E039
:101FB0000E94F80B0F900F90CF91DF910895DF935F
:101FC000CF93CDB7DEB7A2970FB6F894DEBF0FBEA2
:101FD000CDBF89A36AA3EFE4F0E01082A8E5B0E0EA
:101FE000E8E5F0E0808180628C9389A16AA141E0FC
:101FF0000E94100D80E090E0A8E4B2E48D8B9E8BEF
:10200000AF8BB88F6D897E898F89988D2BEA3AEADC
:102010004AEA50E40E941F02DC01CB01898B9A8BB3
:10202000AB8BBC8B69897A898B899C8920E030E0F5
:1020300040E85FE30E94250488231CF481E0888B3C
:1020400091C069897A898B899C8920E030E04FE7CB
:1020500053E40E94C50318160CF07BC06D897E897D
:102060008F89988D20E030E04AE754E40E941903FC
:10207000DC01CB018C879D87AE87BF876C857D8512
:102080008E859F8520E030E04AE755E40E941F02DC
:10209000DC01CB0188879987AA87BB87688579850A
:1020A0008A859B8520E030E040E85FE30E942504BC
:1020B00088232CF481E090E09F838E833FC0688565
:1020C00079858A859B8520E03FEF4FE757E40E94A2
:1020D000C50318164CF56C857D858E859F8520E09F
:1020E00030E040E251E40E941F02DC01CB01BC0160
:1020F000CD010E944900DC01CB019F838E830FC07C
:1021000080E991E09D838C838C819D810197F1F71B
:102110009D838C838E819F8101979F838E838E8187
:102120009F81009769F724C0688579858A859B859A
:102130000E944900DC01CB019F838E838E819F81A9
:102140009B838A838A819B810197F1F79B838A8392
:102150000FC069897A898B899C890E944900DC01BA
:10216000CB01888B8889898389818A95F1F7898356
:1021700089A16AA140E00E94100DEEE4F0E081EC3C
:102180008083E8E5F0E08081829586958770882FCE
:1021900090E0817090700097A1F3E6E4F0E0808118
:1021A000918198A38F8FA8E5B0E0E8E5F0E0808109
:1021B00080628C93EEE4F0E081E88083E8E5F0E073
:1021C0008081829586958770882F90E081709070CD
:1021D0000097A1F3E6E4F0E0808191819E8F8D8FDE
:1021E000A8E5B0E0E8E5F0E0808180628C93ECE463
:1021F000F0E011821082EEE4F0E010822D8D3E8D31
:102200008F8D98A1A901481B590BCA019C8F8B8FF8
:102210008B8D9C8DCC01A0E0B0E028E237E840E057
:1022200050E0BC01CD010E945A26DC01CB01BC016B
:10223000CD010E945504DC01CB01BC01CD0120E0A1
:1022400034E244EF5BE40E941903DC01CB01BC01E2
:10225000CD010E944900DC01CB019A8F898F898DC5
:102260009A8DA2960FB6F894DEBF0FBECDBFCF9168
:10227000DF910895DF93CF93CDB7DEB781E061E0C2
:1022800041E00E94F80B81E062E041E00E94F80B1F
:1022900081E063E041E00E94F80B81E064E041E00E
:1022A0000E94F80B81E065E041E00E94F80B81E0BC
:1022B00066E041E00E94F80B81E067E041E00E94A7
:1022C000F80B82E060E041E00E94F80B83E066E0FA
:1022D00041E00E94F80B83E067E041E00E94F80BC8
:1022E000CF91DF910895DF93CF93CDB7DEB7A79756
:1022F0000FB6F894DEBF0FBECDBF8BA38BA1843683
:1023000008F09BC48BA19AE0692F0E947926892F3F
:102310008E8F8BA19AE0692F0E9479268D8F1F8E58
:1023200018A219A21AA27FC48E8D282F30E03FA3D5
:102330002EA38EA19FA18430910509F4D7C02EA1B0
:102340003FA125303105ECF48EA19FA1813091058C
:1023500009F460C02EA13FA1223031052CF48EA1DA
:102360009FA1009799F199C12EA13FA1223031057B
:1023700009F474C08EA19FA18330910509F492C025
:102380008CC12EA13FA12730310509F41BC18EA1BC
:102390009FA1883091056CF42EA13FA12530310515
:1023A00009F4C8C08EA19FA18630910509F4E6C04A
:1023B00074C12EA13FA12830310509F427C18EA197
:1023C0009FA18930910509F445C167C181E061E0B1
:1023D00041E00E94100D81E062E041E00E94100D9A
:1023E00081E063E041E00E94100D81E064E041E0A3
:1023F0000E94100D81E065E041E00E94100D81E037
:1024000066E041E00E94100D81E067E040E00E943C
:10241000100D43C181E061E040E00E94100D81E0B9
:1024200062E041E00E94100D81E063E041E00E9423
:10243000100D81E064E040E00E94100D81E065E055
:1024400040E00E94100D81E066E040E00E94100D27
:1024500081E067E040E00E94100D1FC181E061E073
:1024600041E00E94100D81E062E041E00E94100D09
:1024700081E063E040E00E94100D81E064E041E013
:102480000E94100D81E065E041E00E94100D81E0A6
:1024900066E040E00E94100D81E067E041E00E94AC
:1024A000100DFBC081E061E041E00E94100D81E071
:1024B00062E041E00E94100D81E063E041E00E9493
:1024C000100D81E064E041E00E94100D81E065E0C4
:1024D00040E00E94100D81E066E040E00E94100D97
:1024E00081E067E041E00E94100DD7C081E061E02B
:1024F00040E00E94100D81E062E041E00E94100D7A
:1025000081E063E041E00E94100D81E064E040E082
:102510000E94100D81E065E040E00E94100D81E016
:1025200066E041E00E94100D81E067E041E00E941A
:10253000100DB3C081E061E041E00E94100D81E028
:1025400062E040E00E94100D81E063E041E00E9403
:10255000100D81E064E041E00E94100D81E065E033
:1025600040E00E94100D81E066E041E00E94100D05
:1025700081E067E041E00E94100D8FC081E061E0E2
:1025800041E00E94100D81E062E040E00E94100DE9
:1025900081E063E041E00E94100D81E064E041E0F1
:1025A0000E94100D81E065E041E00E94100D81E085
:1025B00066E041E00E94100D81E067E041E00E948A
:1025C000100D6BC081E061E041E00E94100D81E0E0
:1025D00062E041E00E94100D81E063E041E00E9472
:1025E000100D81E064E040E00E94100D81E065E0A4
:1025F00040E00E94100D81E066E040E00E94100D76
:1026000081E067E040E00E94100D47C081E061E09A
:1026100041E00E94100D81E062E041E00E94100D57
:1026200081E063E041E00E94100D81E064E041E060
:102630000E94100D81E065E041E00E94100D81E0F4
:1026400066E041E00E94100D81E067E041E00E94F9
:10265000100D23C081E061E041E00E94100D81E097
:1026600062E041E00E94100D81E063E041E00E94E1
:10267000100D81E064E041E00E94100D81E065E012
:1026800040E00E94100D81E066E041E00E94100DE4
:1026900081E067E041E00E94100D83E066E041E0E8
:1026A0000E94100D83E067E040E00E94100D80E082
:1026B00090E0A0E8BFE3898F9A8FAB8FBC8F698DC4
:1026C0007A8D8B8D9C8D20E030E04AE755E40E94A6
:1026D0001F02DC01CB018D8B9E8BAF8BB88F6D8978
:1026E0007E898F89988D20E030E040E85FE30E948A
:1026F000250488232CF481E090E09C8B8B8B3FC0D9
:102700006D897E898F89988D20E03FEF4FE757E4F0
:102710000E94C50318164CF5698D7A8D8B8D9C8DA2
:1027200020E030E040E251E40E941F02DC01CB01D6
:10273000BC01CD010E944900DC01CB019C8B8B8B3D
:102740000FC080E991E09A8B898B89899A890197DA
:10275000F1F79A8B898B8B899C8901979C8B8B8B4A
:102760008B899C89009769F714C06D897E898F8950
:10277000988D0E944900DC01CB019C8B8B8B8B894F
:102780009C89988B8F878F8598890197F1F7988B13
:102790008F8783E066E040E00E94100D8D8D282F2A
:1027A00030E03DA32CA38CA19DA18430910509F4B8
:1027B000D7C02CA13DA125303105ECF48CA19DA101
:1027C0008130910509F460C02CA13DA12230310572
:1027D0002CF48CA19DA1009799F199C12CA13DA148
:1027E0002230310509F474C08CA19DA1833091057C
:1027F00009F492C08CC12CA13DA12730310509F408
:102800001BC18CA19DA1883091056CF42CA13DA128
:102810002530310509F4C8C08CA19DA186309105F1
:1028200009F4E6C074C12CA13DA12830310509F49A
:1028300027C18CA19DA18930910509F445C167C1CB
:1028400081E061E041E00E94100D81E062E041E042
:102850000E94100D81E063E041E00E94100D81E0D4
:1028600064E041E00E94100D81E065E041E00E94DB
:10287000100D81E066E041E00E94100D81E067E00C
:1028800040E00E94100D43C181E061E040E00E9401
:10289000100D81E062E041E00E94100D81E063E0F4
:1028A00041E00E94100D81E064E040E00E94100DC4
:1028B00081E065E040E00E94100D81E066E040E0CC
:1028C0000E94100D81E067E040E00E94100D1FC1E2
:1028D00081E061E041E00E94100D81E062E041E0B2
:1028E0000E94100D81E063E040E00E94100D81E045
:1028F00064E041E00E94100D81E065E041E00E944B
:10290000100D81E066E040E00E94100D81E067E07C
:1029100041E00E94100DFBC081E061E041E00E94B7
:10292000100D81E062E041E00E94100D81E063E063
:1029300041E00E94100D81E064E041E00E94100D32
:1029400081E065E040E00E94100D81E066E040E03B
:102950000E94100D81E067E041E00E94100DD7C099
:1029600081E061E040E00E94100D81E062E041E022
:102970000E94100D81E063E041E00E94100D81E0B3
:1029800064E040E00E94100D81E065E040E00E94BC
:10299000100D81E066E041E00E94100D81E067E0EB
:1029A00041E00E94100DB3C081E061E041E00E946F
:1029B000100D81E062E040E00E94100D81E063E0D4
:1029C00041E00E94100D81E064E041E00E94100DA2
:1029D00081E065E040E00E94100D81E066E041E0AA
:1029E0000E94100D81E067E041E00E94100D8FC051
:1029F00081E061E041E00E94100D81E062E040E092
:102A00000E94100D81E063E041E00E94100D81E022
:102A100064E041E00E94100D81E065E041E00E9429
:102A2000100D81E066E041E00E94100D81E067E05A
:102A300041E00E94100D6BC081E061E041E00E9426
:102A4000100D81E062E041E00E94100D81E063E042
:102A500041E00E94100D81E064E040E00E94100D12
:102A600081E065E040E00E94100D81E066E040E01A
:102A70000E94100D81E067E040E00E94100D47C009
:102A800081E061E041E00E94100D81E062E041E000
:102A90000E94100D81E063E041E00E94100D81E092
:102AA00064E041E00E94100D81E065E041E00E9499
:102AB000100D81E066E041E00E94100D81E067E0CA
:102AC00041E00E94100D23C081E061E041E00E94DE
:102AD000100D81E062E041E00E94100D81E063E0B2
:102AE00041E00E94100D81E064E041E00E94100D81
:102AF00081E065E040E00E94100D81E066E041E089
:102B00000E94100D81E067E041E00E94100D83E01B
:102B100067E041E00E94100D80E090E0A0E8BFE394
:102B20008B879C87AD87BE876B857C858D859E85D1
:102B300020E030E04AE755E40E941F02DC01CB01AF
:102B40008F839887A987BA876F81788589859A85C9
:102B500020E030E040E85FE30E94250488232CF465
:102B600081E090E09E838D833FC06F817885898569
:102B70009A8520E03FEF4FE757E40E94C5031816FF
:102B80004CF56B857C858D859E8520E030E040E2AC
:102B900051E40E941F02DC01CB01BC01CD010E9467
:102BA0004900DC01CB019E838D830FC080E991E059
:102BB0009C838B838B819C810197F1F79C838B8312
:102BC0008D819E8101979E838D838D819E8100974B
:102BD00069F714C06F81788589859A850E944900BC
:102BE000DC01CB019E838D838D819E819A838983B5
:102BF00089819A810197F1F79A83898383E066E05E
:102C000040E00E94100D83E067E040E00E94100D5C
:102C10008F8D98A1A9A1BAA10196A11DB11D8F8F79
:102C200098A3A9A3BAA38F8D98A1A9A1BAA18A3FFD
:102C30009105A105B10508F477CBA7960FB6F894D6
:102C4000DEBF0FBECDBFCF91DF910895DF93CF934D
:102C500000D0CDB7DEB79A838983E981FA8181817B
:102C6000E981FA819281692F40E00E94F80B0F9070
:102C70000F90CF91DF910895DF93CF93CDB7DEB75B
:102C8000A1970FB6F894DEBF0FBECDBF9F8F8E8F7A
:102C900079A368A3EE8DFF8D8381882309F0ADC0F1
:102CA000E8A1F9A181E08083EE8DFF8D8181EE8D19
:102CB000FF8D92819E01235E3F4F692FA9010E94E3
:102CC000270E8D8D882309F049C180E090E0A8E4AB
:102CD000B3E4898F9A8FAB8FBC8F698D7A8D8B8D82
:102CE0009C8D20E030E04AE755E40E941F02DC01A1
:102CF000CB018D8B9E8BAF8BB88F6D897E898F8931
:102D0000988D20E030E040E85FE30E9425048823AE
:102D10002CF481E090E09C8B8B8B3FC06D897E8989
:102D20008F89988D20E03FEF4FE757E40E94C5035D
:102D300018164CF5698D7A8D8B8D9C8D20E030E0D6
:102D400040E251E40E941F02DC01CB01BC01CD0135
:102D50000E944900DC01CB019C8B8B8B0FC080E96A
:102D600091E09A8B898B89899A890197F1F79A8BDF
:102D7000898B8B899C8901979C8B8B8B8B899C89F8
:102D8000009769F714C06D897E898F89988D0E949C
:102D90004900DC01CB019C8B8B8B8B899C89988BA8
:102DA0008F878F8598890197F1F7988B8F87EE8DA4
:102DB000FF8D8181EE8DFF8D92819E01235E3F4FBD
:102DC000692FA9010E94270E8D8D882309F0C6C0A6
:102DD0000DC0EE8DFF8D8181EE8DFF8D92819E0164
:102DE000235E3F4F692FA9010E94270E8D8D8823F6
:102DF00081F3E8A1F9A11082B1C0EE8DFF8D83812E
:102E0000813009F0ABC0E8A1F9A11082EE8DFF8DF1
:102E10008181EE8DFF8D92819E01235E3F4F692F50
:102E2000A9010E94270E8D8D813009F097C080E0A6
:102E300090E0A8E4B3E48B879C87AD87BE876B8561
:102E40007C858D859E8520E030E04AE755E40E9430
:102E50001F02DC01CB018F839887A987BA876F8116
:102E6000788589859A8520E030E040E85FE30E941C
:102E7000250488232CF481E090E09E838D833FC05D
:102E80006F81788589859A8520E03FEF4FE757E489
:102E90000E94C50318164CF56B857C858D859E8533
:102EA00020E030E040E251E40E941F02DC01CB014F
:102EB000BC01CD010E944900DC01CB019E838D83C2
:102EC0000FC080E991E09C838B838B819C8101976B
:102ED000F1F79C838B838D819E8101979E838D83E7
:102EE0008D819E81009769F714C06F8178858985EF
:102EF0009A850E944900DC01CB019E838D838D81E0
:102F00009E819A83898389819A810197F1F79A83B7
:102F10008983EE8DFF8D8181EE8DFF8D92819E01E3
:102F2000235E3F4F692FA9010E94270E8D8D8130AE
:102F3000A9F40DC0EE8DFF8D8181EE8DFF8D928104
:102F40009E01235E3F4F692FA9010E94270E8D8DA0
:102F5000813081F3E8A1F9A181E08083A1960FB6C9
:102F6000F894DEBF0FBECDBFCF91DF910895DF9300
:102F7000CF93CDB7DEB781E060E040E00E94F80B70
:102F800087E061E00E94290FCF91DF910895DF93E0
:102F9000CF93CDB7DEB727970FB6F894DEBF0FBE3D
:102FA000CDBF80E00E947B0F9F838E838E819F81A7
:102FB000CC01A0E0B0E028E833E140E050E0BC0103
:102FC000CD010E945A26DC01CB01072E7AE0B6958E
:102FD000A795979587957A95D1F7702D8A839B83CE
:102FE000AC83BD838A819B81AC81BD812AE030E0C6
:102FF00040E050E0BC01CD010E949926DA01C901F0
:103000008983898127960FB6F894DEBF0FBECDBFA6
:10301000CF91DF910895DF93CF9300D00F92CDB77A
:10302000DEB789838981282F30E03B832A838A8118
:103030009B818130910579F02A813B8122303105D5
:1030400081F08A819B81009789F483E060E041E010
:103050000E94F80B0BC083E061E041E00E94F80B96
:1030600005C083E062E041E00E94F80B0F900F90F2
:103070000F90CF91DF910895DF93CF9300D00F92FF
:10308000CDB7DEB789838981282F30E03B832A833F
:103090008A819B818130910579F02A813B812230A0
:1030A000310581F08A819B81009789F483E060E09B
:1030B00041E00E94100D0BC083E061E041E00E94FE
:1030C000100D05C083E062E041E00E94100D0F90FA
:1030D0000F900F90CF91DF910895DF93CF9300D0A1
:1030E0000F92CDB7DEB789838981282F30E03B83EB
:1030F0002A838A819B818130910579F02A813B81E5
:103100002230310581F08A819B81009789F483E028
:1031100060E040E00E94100D0BC083E061E040E001
:103120000E94100D05C083E062E040E00E94100D97
:103130000F900F900F90CF91DF910895DF93CF9371
:1031400000D00F92CDB7DEB789838981282F30E078
:103150003B832A838A819B818130910571F02A818A
:103160003B812230310571F08A819B81009771F497
:1031700083E060E00E94AB0E09C083E061E00E9442
:10318000AB0E04C083E062E00E94AB0E0F900F9084
:103190000F90CF91DF910895DF93CF93CDB7DEB736
:1031A000AA970FB6F894DEBF0FBECDBF81E061E0F5
:1031B00041E00E94F80B81E062E041E00E94F80BE0
:1031C00081E066E041E00E94F80B81E065E041E0CB
:1031D0000E94F80B81E064E041E00E94F80B81E07E
:1031E00063E041E00E94F80B80E090E0ACE0B2E4E4
:1031F0008FA398A7A9A7BAA76FA178A589A59AA513
:1032000020E030E04AE755E40E941F02DC01CB01D8
:103210008BA39CA3ADA3BEA36BA17CA18DA19EA1FA
:1032200020E030E040E85FE30E94250488232CF48E
:1032300081E090E09AA389A33FC06BA17CA18DA1FE
:103240009EA120E03FEF4FE757E40E94C503181608
:103250004CF56FA178A589A59AA520E030E040E261
:1032600051E40E941F02DC01CB01BC01CD010E9490
:103270004900DC01CB019AA389A30FC080E991E04A
:1032800098A38F8F8F8D98A10197F1F798A38F8FB7
:1032900089A19AA101979AA389A389A19AA10097CC
:1032A00069F714C06BA17CA18DA19EA10E94490069
:1032B000DC01CB019AA389A389A19AA19E8F8D8F4E
:1032C0008D8D9E8D0197F1F79E8F8D8F81E061E04E
:1032D00040E00E94100D81E062E040E00E94100D8D
:1032E00081E066E040E00E94100D81E065E040E092
:1032F0000E94100D81E064E041E00E94100D81E029
:1033000063E040E00E94100D81E062E041E00E9435
:10331000100D80E090E0A0E8BFE3898F9A8FAB8F1B
:10332000BC8F698D7A8D8B8D9C8D20E030E04AE7D3
:1033300055E40E941F02DC01CB018D8B9E8BAF8B6D
:10334000B88F6D897E898F89988D20E030E040E8C4
:103350005FE30E94250488232CF481E090E09C8B9D
:103360008B8B3FC06D897E898F89988D20E03FEFE0
:103370004FE757E40E94C50318164CF5698D7A8D06
:103380008B8D9C8D20E030E040E251E40E941F02D2
:10339000DC01CB01BC01CD010E944900DC01CB0165
:1033A0009C8B8B8B0FC080E991E09A8B898B8989EC
:1033B0009A890197F1F79A8B898B8B899C89019760
:1033C0009C8B8B8B8B899C89009769F714C06D89C6
:1033D0007E898F89988D0E944900DC01CB019C8BEE
:1033E0008B8B8B899C89988B8F878F859889019788
:1033F000F1F7988B8F8781E062E040E00E94100D2A
:1034000080E090E0A0EAB0E48B879C87AD87BE8720
:103410006B857C858D859E8520E030E04AE755E40C
:103420000E941F02DC01CB018F839887A987BA878E
:103430006F81788589859A8520E030E040E85FE3F8
:103440000E94250488232CF481E090E09E838D83E4
:103450003FC06F81788589859A8520E03FEF4FE7EF
:1034600057E40E94C50318164CF56B857C858D8545
:103470009E8520E030E040E251E40E941F02DC0122
:10348000CB01BC01CD010E944900DC01CB019E8330
:103490008D830FC080E991E09C838B838B819C811D
:1034A0000197F1F79C838B838D819E8101979E8389
:1034B0008D838D819E81009769F714C06F81788517
:1034C00089859A850E944900DC01CB019E838D830A
:1034D0008D819E819A83898389819A810197F1F7F1
:1034E0009A83898388E20E94991A8EE00E94991A31
:1034F00081E00E94991A86E00E94991AAA960FB656
:10350000F894DEBF0FBECDBFCF91DF910895DF935A
:10351000CF930F92CDB7DEB7898381E061E041E0C0
:103520000E94100D89810E94B31B0F90CF91DF91F3
:103530000895DF93CF930F92CDB7DEB7898381E0F3
:1035400061E040E00E94100D89810E94B31B0F9042
:10355000CF91DF910895DF93CF9300D0CDB7DEB741
:103560009A8389830AC0E981FA8180810E94871A3F
:1035700089819A8101969A838983E981FA81808180
:10358000882389F70F900F90CF91DF910895DF93F3
:10359000CF93CDB7DEB781E00E94991ACF91DF912A
:1035A00008950F931F93DF93CF93CDB7DEB72F9777
:1035B0000FB6F894DEBF0FBECDBF6C877D878E87B8
:1035C0009F878AE0FE013296DF01982F1D929A951F
:1035D000E9F719828C859D85AE85BF850097A10589
:1035E000B10521F480E30E94871A69C08C859D850E
:1035F000AE85BF85BB230CF042C08DE20E94871AC6
:103600008C859D85AE85BF85B095A095909581955B
:103610009F4FAF4FBF4F8C879D87AE87BF872FC00F
:103620008981082F112707FD10958C859D85AE8512
:10363000BF852AE030E040E050E0BC01CD010E94AF
:10364000BB26DC01CB01282FCE010296FC01E00F46
:10365000F11F20838C859D85AE85BF852AE030E0F3
:1036600040E050E0BC01CD010E94BB26DA01C90157
:103670008C879D87AE87BF8789818F5F89838C8583
:103680009D85AE85BF850097A105B10549F6898165
:103690008150898311C08981282F332727FD3095D8
:1036A000CE010296FC01E20FF31F8081805D0E9433
:1036B000871A8981815089838981882364F72F96AD
:1036C0000FB6F894DEBF0FBECDBFCF91DF911F9133
:1036D0000F910895DF93CF9300D000D0CDB7DEB720
:1036E00089836A838981882319F089818130D9F49B
:1036F0008A818031C0F48981282F30E03C832B837C
:103700008B819C81009731F02B813C8121303105E8
:1037100031F009C08A8180580E94991A04C08A81B8
:1037200080540E94991A0F900F900F900F90CF9194
:10373000DF910895DF93CF9300D00F92CDB7DEB71E
:103740009A8389836B830F900F900F90CF91DF91B5
:103750000895DF93CF930F92CDB7DEB789830F9093
:10376000CF91DF910895DF93CF93CDB7DEB7E9977F
:103770000FB6F894DEBF0FBECDBF89AF81E062E027
:1037800040E00E94100D89AD82958F70982F917046
:1037900081E063E0492F0E94100D89AD82958695E6
:1037A0008770982F917081E064E0492F0E94100D7E
:1037B00089AD8295869586958370982F917081E06A
:1037C00065E0492F0E94100D89AD982F991F992708
:1037D000991F81E066E0492F0E94100D81E062E0B0
:1037E00041E00E94100D80E090E0A0E8BFE38DABC7
:1037F0009EABAFABB8AF6DA97EA98FA998AD20E005
:1038000030E04AE755E40E941F02DC01CB0189AB9E
:103810009AABABABBCAB69A97AA98BA99CA920E0F8
:1038200030E040E85FE30E94250488232CF481E027
:1038300090E098AB8FA73FC069A97AA98BA99CA9F2
:1038400020E03FEF4FE757E40E94C50318164CF500
:103850006DA97EA98FA998AD20E030E040E251E447
:103860000E941F02DC01CB01BC01CD010E94490076
:10387000DC01CB0198AB8FA70FC080E991E09EA738
:103880008DA78DA59EA50197F1F79EA78DA78FA562
:1038900098A9019798AB8FA78FA598A9009769F76A
:1038A00014C069A97AA98BA99CA90E944900DC01CE
:1038B000CB0198AB8FA78FA598A99CA78BA78BA5A9
:1038C0009CA50197F1F79CA78BA781E062E040E0FF
:1038D0000E94100D80E090E0A0EAB0E48FA398A7CA
:1038E000A9A7BAA76FA178A589A59AA520E030E07D
:1038F0004AE755E40E941F02DC01CB018BA39CA385
:10390000ADA3BEA36BA17CA18DA19EA120E030E060
:1039100040E85FE30E94250488232CF481E090E0D6
:103920009AA389A33FC06BA17CA18DA19EA120E099
:103930003FEF4FE757E40E94C50318164CF56FA1FF
:1039400078A589A59AA520E030E040E251E40E94E4
:103950001F02DC01CB01BC01CD010E944900DC014A
:10396000CB019AA389A30FC080E991E098A38F8F20
:103970008F8D98A10197F1F798A38F8F89A19AA1B4
:1039800001979AA389A389A19AA1009769F714C006
:103990006BA17CA18DA19EA10E944900DC01CB01FD
:1039A0009AA389A389A19AA19E8F8D8F8D8D9E8DBB
:1039B0000197F1F79E8F8D8F89AD982F917081E0DF
:1039C00063E0492F0E94100D89AD8695982F917064
:1039D00081E064E0492F0E94100D89AD869586959F
:1039E000982F917081E065E0492F0E94100D89ADFC
:1039F000869586958695982F917081E066E0492F8F
:103A00000E94100D81E062E041E00E94100D80E014
:103A100090E0A0E8BFE3898F9A8FAB8FBC8F698D50
:103A20007A8D8B8D9C8D20E030E04AE755E40E9432
:103A30001F02DC01CB018D8B9E8BAF8BB88F6D8904
:103A40007E898F89988D20E030E040E85FE30E9416
:103A5000250488232CF481E090E09C8B8B8B3FC065
:103A60006D897E898F89988D20E03FEF4FE757E47D
:103A70000E94C50318164CF5698D7A8D8B8D9C8D2F
:103A800020E030E040E251E40E941F02DC01CB0163
:103A9000BC01CD010E944900DC01CB019C8B8B8BCA
:103AA0000FC080E991E09A8B898B89899A89019767
:103AB000F1F79A8B898B8B899C8901979C8B8B8BD7
:103AC0008B899C89009769F714C06D897E898F89DD
:103AD000988D0E944900DC01CB019C8B8B8B8B89DC
:103AE0009C89988B8F878F8598890197F1F7988BA0
:103AF0008F8781E062E040E00E94100D80E090E05E
:103B0000A0EAB0E48B879C87AD87BE876B857C85F8
:103B10008D859E8520E030E04AE755E40E941F0233
:103B2000DC01CB018F839887A987BA876F8178855D
:103B300089859A8520E030E040E85FE30E94250413
:103B400088232CF481E090E09E838D833FC06F81B9
:103B5000788589859A8520E03FEF4FE757E40E94FA
:103B6000C50318164CF56B857C858D859E8520E0F8
:103B700030E040E251E40E941F02DC01CB01BC01B5
:103B8000CD010E944900DC01CB019E838D830FC0D3
:103B900080E991E09C838B838B819C810197F1F775
:103BA0009C838B838D819E8101979E838D838D81E4
:103BB0009E81009769F714C06F81788589859A8501
:103BC0000E944900DC01CB019E838D838D819E8103
:103BD0009A83898389819A810197F1F79A838983EE
:103BE000E9960FB6F894DEBF0FBECDBFCF91DF913F
:103BF0000895DF93CF93CDB7DEB782E064E041E074
:103C00000E94F80B82E065E041E00E94F80B82E040
:103C100066E041E00E94F80B82E067E041E00E942C
:103C2000F80B84E062E040E00E94F80B84E063E07F
:103C300040E00E94F80B84E064E040E00E94F80B52
:103C400084E065E040E00E94F80B82E064E041E03F
:103C50000E94100D82E065E041E00E94100D82E0BC
:103C600066E041E00E94100D82E067E041E00E94C2
:103C7000100D84E062E041E00E94100D84E063E0FA
:103C800041E00E94100D84E064E041E00E94100DCC
:103C900084E065E041E00E94100DCF91DF9108952E
:103CA000DF93CF93CDB7DEB7A8970FB6F894DEBFFA
:103CB0000FBECDBF8FEF898BCE0142969DA38CA303
:103CC000E7EEF1E0FFA3EEA3F0E1F8A7EEA1FFA17C
:103CD00000808EA19FA101969FA38EA3ECA1FDA1C0
:103CE00000828CA19DA101969DA38CA398A59150C3
:103CF00098A7E8A5EE2351F784E0888BC9C082E03D
:103D0000688940E00E94100D82E08F87B5C09E0157
:103D10002E5D3F4F84E06F85A9010E94270E8AA186
:103D2000882309F0A6C080E090E0A8ECB2E48B877D
:103D30009C87AD87BE876B857C858D859E8520E0C1
:103D400030E04AE755E40E941F02DC01CB018F837B
:103D50009887A987BA876F81788589859A8520E0B9
:103D600030E040E85FE30E94250488232CF481E0E2
:103D700090E09E838D833FC06F81788589859A8589
:103D800020E03FEF4FE757E40E94C50318164CF5BB
:103D90006B857C858D859E8520E030E040E251E496
:103DA0000E941F02DC01CB01BC01CD010E94490031
:103DB000DC01CB019E838D830FC080E991E09C8361
:103DC0008B838B819C810197F1F79C838B838D8101
:103DD0009E8101979E838D838D819E81009769F7D7
:103DE00014C06F81788589859A850E944900DC011D
:103DF000CB019E838D838D819E819A838983898166
:103E00009A810197F1F79A8389839E012E5D3F4F36
:103E100084E06F85A9010E94270E8AA1882349F5B5
:103E200008C09E012E5D3F4F84E06F85A9010E946E
:103E3000270E8AA18823A9F38889882F90E09C0106
:103E4000245030408F85882F90E0AC014250504084
:103E5000220F331F220F331FCE010196820F931FB3
:103E6000840F951FFC0171968081898BF989FBA3D2
:103E700015C08F858F5F8F878F85863008F447CF79
:103E800082E0688941E00E94100D88898F5F888BED
:103E90008889883008F433CF89898BA38BA1A896B1
:103EA0000FB6F894DEBF0FBECDBFCF91DF9108955E
:103EB000DF93CF93CDB7DEB762970FB6F894DEBF2E
:103EC0000FBECDBF0E9417200E942720188A0E9493
:103ED000B2200E94C120888B8889882309F4A4C05D
:103EE0008889813009F0A0C00E94C71A80E690E05E
:103EF0000E94AB1A81E060E00E946A1B89E690E0B4
:103F00000E94AB1A80E090E0AAE7B4E48B879C871C
:103F1000AD87BE876B857C858D859E8520E030E0F2
:103F20004AE755E40E941F02DC01CB018F8398878A
:103F3000A987BA876F81788589859A8520E030E0E6
:103F400040E85FE30E94250488232CF481E090E0A0
:103F50009E838D833FC06F81788589859A8520E017
:103F60003FEF4FE757E40E94C50318164CF56B85E9
:103F70007C858D859E8520E030E040E251E40E9402
:103F80001F02DC01CB01BC01CD010E944900DC0114
:103F9000CB019E838D830FC080E991E09C838B834E
:103FA0008B819C810197F1F79C838B838D819E810E
:103FB00001979E838D838D819E81009769F714C040
:103FC0006F81788589859A850E944900DC01CB0143
:103FD0009E838D838D819E819A83898389819A8135
:103FE0000197F1F79A8389838FEF8F8703C00E942F
:103FF000501E8F878F858F3FD1F38F85282F30E01C
:104000003A8B298B89899A898133910531F02989E5
:104010003A892233310521F005C00E944C2502C0A7
:104020000E9465258FEF8F870E94C71A50CFDF93BC
:10403000CF93CDB7DEB70E94CC180E94F91D0E9425
:10404000B7170E94AA0F7894CF91DF910895DF935C
:10405000CF93CDB7DEB72E970FB6F894DEBF0FBE65
:10406000CDBF83E790E00E94AB1A80E090E0AAEF1A
:10407000B4E48B879C87AD87BE876B857C858D85F7
:104080009E8520E030E04AE755E40E941F02DC01F3
:10409000CB018F839887A987BA876F8178858985B7
:1040A0009A8520E030E040E85FE30E942504882301
:1040B0002CF481E090E09E838D833FC06F817885F2
:1040C00089859A8520E03FEF4FE757E40E94C503BA
:1040D00018164CF56B857C858D859E8520E030E03B
:1040E00040E251E40E941F02DC01CB01BC01CD0182
:1040F0000E944900DC01CB019E838D830FC080E9C3
:1041000091E09C838B838B819C810197F1F79C8349
:104110008B838D819E8101979E838D838D819E816E
:10412000009769F714C06F81788589859A850E9408
:104130004900DC01CB019E838D838D819E819A8312
:10414000898389819A810197F1F79A8389830E94F3
:10415000C71A2E960FB6F894DEBF0FBECDBFCF9113
:10416000DF910895DF93CF93CDB7DEB783E065E0AD
:104170000E94DF0F9093130280931202CF91DF9180
:1041800008950F931F93DF93CF93CDB7DEB7CA5433
:10419000D0400FB6F894DEBF0FBECDBFFE01E75B87
:1041A000FF4F108280911202909113028F3091057F
:1041B00008F0DBC18FE790E00E94AB1A81E064E079
:1041C0000E946A1B81E990E00E94AB1AFE01ED5B40
:1041D000FF4F80E090E0AAE7B4E480839183A2835C
:1041E000B3838E01015C1F4FFE01ED5BFF4F6081C9
:1041F00071818281938120E030E04AE755E40E949A
:104200001F02DC01CB01F80180839183A283B38379
:10421000FE01FF96608171818281938120E030E010
:1042200040E85FE30E94250488232CF481E090E0BD
:104230009EAF8DAF46C0FE01FF9660817181828185
:10424000938120E03FEF4FE757E40E94C503181623
:1042500064F5FE01ED5BFF4F608171818281938186
:1042600020E030E040E251E40E941F02DC01CB017B
:10427000BC01CD010E944900DC01CB019EAF8DAF96
:104280000FC080E991E09CAF8BAF8BAD9CAD0197E7
:10429000F1F79CAF8BAF8DAD9EAD01979EAF8DAF0B
:1042A0008DAD9EAD009769F716C0FE01FF96608147
:1042B0007181828193810E944900DC01CB019EAF14
:1042C0008DAF8DAD9EAD9AAF89AF89AD9AAD019797
:1042D000F1F79AAF89AF0E94C71AFE01E85BFF4F62
:1042E00083E080830E94FD23FE01E75BFF4F808314
:1042F000FE01E75BFF4F8081882309F020C10E9407
:10430000C71A8AE990E00E94AB1A80E090E0AAE721
:10431000B4E48DAB9EABAFABB8AF6DA97EA98FA94E
:1043200098AD20E030E04AE755E40E941F02DC012E
:10433000CB0189AB9AABABABBCAB69A97AA98BA912
:104340009CA920E030E040E85FE30E942504882338
:104350002CF481E090E098AB8FA73FC069A97AA9BF
:104360008BA99CA920E03FEF4FE757E40E94C503CB
:1043700018164CF56DA97EA98FA998AD20E030E004
:1043800040E251E40E941F02DC01CB01BC01CD01DF
:104390000E944900DC01CB0198AB8FA70FC080E9D8
:1043A00091E09EA78DA78DA59EA50197F1F79EA7E9
:1043B0008DA78FA598A9019798AB8FA78FA598A9CE
:1043C000009769F714C069A97AA98BA99CA90E94D2
:1043D0004900DC01CB0198AB8FA78FA598A99CA7BA
:1043E0008BA78BA59CA50197F1F79CA78BA70E9493
:1043F000C71ADE01A85BBF4FFE01E85BFF4F80815B
:1044000081508C93FE01E85BFF4F8081882309F087
:1044100096C00E94C71A84EA90E00E94AB1AFE017F
:10442000E95BFF4F1082FE01E95BFF4F108280C005
:1044300080E090E0AAE7B4E48FA398A7A9A7BAA761
:104440006FA178A589A59AA520E030E04AE755E458
:104450000E941F02DC01CB018BA39CA3ADA3BEA3D2
:104460006BA17CA18DA19EA120E030E040E85FE33C
:104470000E94250488232CF481E090E09AA389A36C
:104480003FC06BA17CA18DA19EA120E03FEF4FE733
:1044900057E40E94C50318164CF56FA178A589A5AD
:1044A0009AA520E030E040E251E40E941F02DC01C6
:1044B000CB01BC01CD010E944900DC01CB019AA3D4
:1044C00089A30FC080E991E098A38F8F8F8D98A169
:1044D0000197F1F798A38F8F89A19AA101979AA3C9
:1044E00089A389A19AA1009769F714C06BA17CA147
:1044F0008DA19EA10E944900DC01CB019AA389A352
:1045000089A19AA19E8F8D8F8D8D9E8D0197F1F738
:104510009E8F8D8FFE01E85BFF4F83E08083DE017D
:10452000A95BBF4FFE01E95BFF4F80818F5F8C93DA
:10453000FE01E95BFF4F80818A3008F479CFFE01EC
:10454000E75BFF4F8081882309F4CCCEFE01E75B57
:10455000FF4F8081813009F03AC1FE01E75BFF4FD8
:1045600080812B968FAF2B9739C180EB90E00E9412
:10457000AB1A81E060E00E946A1B80911202909168
:10458000130228EE33E0B9010E948526CB012AE010
:1045900030E0B9010E948526805D0E94871A8091D3
:1045A00012029091130224E630E0B9010E948526A0
:1045B000CB012AE030E0B9010E948526805D0E948F
:1045C000871A80911202909113022AE030E0B9011B
:1045D0000E948526CB012AE030E0B9010E948526A1
:1045E000805D0E94871A80911202909113022AE046
:1045F00030E0B9010E948526805D0E94871A80E024
:1046000090E0AAEFB3E4898F9A8FAB8FBC8F698D4E
:104610007A8D8B8D9C8D20E030E04AE755E40E9436
:104620001F02DC01CB018D8B9E8BAF8BB88F6D8908
:104630007E898F89988D20E030E040E85FE30E941A
:10464000250488232CF481E090E09C8B8B8B3FC069
:104650006D897E898F89988D20E03FEF4FE757E481
:104660000E94C50318164CF5698D7A8D8B8D9C8D33
:1046700020E030E040E251E40E941F02DC01CB0167
:10468000BC01CD010E944900DC01CB019C8B8B8BCE
:104690000FC080E991E09A8B898B89899A8901976B
:1046A000F1F79A8B898B8B899C8901979C8B8B8BDB
:1046B0008B899C89009769F714C06D897E898F89E1
:1046C000988D0E944900DC01CB019C8B8B8B8B89E0
:1046D0009C89988B8F878F8598890197F1F7988BA4
:1046E0008F870E94C71A0E94752580E090E0AAE794
:1046F000B4E48B879C87AD87BE876B857C858D8571
:104700009E8520E030E04AE755E40E941F02DC016C
:10471000CB018F839887A987BA876F817885898530
:104720009A8520E030E040E85FE30E94250488237A
:104730002CF481E090E09E838D833FC06F8178856B
:1047400089859A8520E03FEF4FE757E40E94C50333
:1047500018164CF56B857C858D859E8520E030E0B4
:1047600040E251E40E941F02DC01CB01BC01CD01FB
:104770000E944900DC01CB019E838D830FC080E93C
:1047800091E09C838B838B819C810197F1F79C83C3
:104790008B838D819E8101979E838D838D819E81E8
:1047A000009769F714C06F81788589859A850E9482
:1047B0004900DC01CB019E838D838D819E819A838C
:1047C000898389819A810197F1F79A838983FE0110
:1047D000E75BFF4F80812B968FAF2B972B968FAD8A
:1047E0002B97C65BDF4F0FB6F894DEBF0FBECDBF71
:1047F000CF91DF911F910F910895DF93CF93CDB7A4
:10480000DEB7A3970FB6F894DEBF0FBECDBF1F8EE5
:104810001E8E8FEF8D8F18A219A21AA21BA280E004
:1048200060E00E946A1B81E08E8F97C00E94501E3C
:104830008D8F8D8D8F3FD1F38E8D882F90E09C01D1
:1048400021503040CE018096FC01E20FF31F8D8D88
:1048500080838D8D0E94871A80E090E0AAEFB3E4F8
:10486000898F9A8FAB8FBC8F698D7A8D8B8D9C8D44
:1048700020E030E04AE755E40E941F02DC01CB0152
:104880008D8B9E8BAF8BB88F6D897E898F89988D2C
:1048900020E030E040E85FE30E94250488232CF408
:1048A00081E090E09C8B8B8B3FC06D897E898F89E6
:1048B000988D20E03FEF4FE757E40E94C50318169C
:1048C0004CF5698D7A8D8B8D9C8D20E030E040E237
:1048D00051E40E941F02DC01CB01BC01CD010E940A
:1048E0004900DC01CB019C8B8B8B0FC080E991E0F0
:1048F0009A8B898B89899A890197F1F79A8B898B91
:104900008B899C8901979C8B8B8B8B899C890097C9
:1049100069F714C06D897E898F89988D0E9449003E
:10492000DC01CB019C8B8B8B8B899C89988B8F872F
:104930008F8598890197F1F7988B8F878E8D982FA7
:10494000915080E0692F0E946A1B8AE20E94871AB8
:104950008FEF8D8F8E8D8F5F8E8F8E8D853008F4CB
:1049600068CF1E8E1AC08E8D282F30E0CE01809623
:10497000FC01E20FF31F20818E8D882F90E0FC0157
:10498000E153FE4F8081281731F481E08F8F8E8DA7
:104990008F5F8E8F02C01F8E03C08E8D843018F300
:1049A00080E090E0AAEFB3E48B879C87AD87BE8759
:1049B0006B857C858D859E8520E030E04AE755E457
:1049C0000E941F02DC01CB018F839887A987BA87D9
:1049D0006F81788589859A8520E030E040E85FE343
:1049E0000E94250488232CF481E090E09E838D832F
:1049F0003FC06F81788589859A8520E03FEF4FE73A
:104A000057E40E94C50318164CF56B857C858D858F
:104A10009E8520E030E040E251E40E941F02DC016C
:104A2000CB01BC01CD010E944900DC01CB019E837A
:104A30008D830FC080E991E09C838B838B819C8167
:104A40000197F1F79C838B838D819E8101979E83D3
:104A50008D838D819E81009769F714C06F81788561
:104A600089859A850E944900DC01CB019E838D8354
:104A70008D819E819A83898389819A810197F1F73B
:104A80009A8389838F8DA3960FB6F894DEBF0FBEED
:104A9000CDBFCF91DF910895DF93CF93CDB7DEB730
:104AA00081E00E940B1882E00E940B1880E00E94B7
:104AB0000B1881E00E943C1882E00E943C1880E0C4
:104AC0000E943C18CF91DF910895DF93CF93CDB72B
:104AD000DEB781E00E946D1882E00E946D1880E0D0
:104AE0000E946D18CF91DF910895DF93CF93CDB7DA
:104AF000DEB72E970FB6F894DEBF0FBECDBF0E9473
:104B0000C717882F90E0909315028093140280912C
:104B10001402909115028B3F910518F40E94C20F68
:104B200002C00E94B60F0E94C71A8DEB90E00E944F
:104B3000AB1A81E060E00E946A1B809114029091A0
:104B4000150220E137E2B9010E948526CB012AE057
:104B500030E0B9010E948526805D0E94871A80910D
:104B600014029091150228EE33E0B9010E948526C7
:104B7000CB012AE030E0B9010E948526805D0E94C9
:104B8000871A809114029091150224E630E0B90151
:104B90000E948526CB012AE030E0B9010E948526DB
:104BA000805D0E94871A80911402909115022AE07C
:104BB00030E0B9010E948526805D0E94871A80E05E
:104BC00090E0AAE7B4E48B879C87AD87BE876B85AE
:104BD0007C858D859E8520E030E04AE755E40E9483
:104BE0001F02DC01CB018F839887A987BA876F8169
:104BF000788589859A8520E030E040E85FE30E946F
:104C0000250488232CF481E090E09E838D833FC0AF
:104C10006F81788589859A8520E03FEF4FE757E4DB
:104C20000E94C50318164CF56B857C858D859E8585
:104C300020E030E040E251E40E941F02DC01CB01A1
:104C4000BC01CD010E944900DC01CB019E838D8314
:104C50000FC080E991E09C838B838B819C810197BD
:104C6000F1F79C838B838D819E8101979E838D8339
:104C70008D819E81009769F714C06F817885898541
:104C80009A850E944900DC01CB019E838D838D8132
:104C90009E819A83898389819A810197F1F79A830A
:104CA00089832E960FB6F894DEBF0FBECDBFCF918D
:104CB000DF910895629FD001739FF001829FE00D04
:104CC000F11D649FE00DF11D929FF00D839FF00D8B
:104CD000749FF00D659FF00D9927729FB00DE11D37
:104CE000F91F639FB00DE11DF91FBD01CF01112414
:104CF0000895991B79E004C0991F961708F0961B38
:104D0000881F7A95C9F780950895AA1BBB1B51E1AE
:104D100007C0AA1FBB1FA617B70710F0A61BB70B2B
:104D2000881F991F5A95A9F780959095BC01CD01D0
:104D30000895A1E21A2EAA1BBB1BFD010DC0AA1FDC
:104D4000BB1FEE1FFF1FA217B307E407F50720F0F4
:104D5000A21BB30BE40BF50B661F771F881F991F6F
:104D60001A9469F760957095809590959B01AC01B8
:104D7000BD01CF01089597FB092E05260ED057FDE2
:104D800004D0D7DF0AD0001C38F4509540953095F8
:104D900021953F4F4F4F5F4F0895F6F790958095BF
:104DA000709561957F4F8F4F9F4F08952F923F923F
:104DB0004F925F926F927F928F929F92AF92BF922B
:104DC000CF92DF92EF92FF920F931F93CF93DF93D7
:104DD000CDB7DEB7CA1BDB0B0FB6F894DEBF0FBE34
:104DE000CDBF09942A88398848885F846E847D8481
:104DF0008C849B84AA84B984C884DF80EE80FD8083
:104E00000C811B81AA81B981CE0FD11D0FB6F894F8
:0E4E1000DEBF0FBECDBFED010895F894FFCFB9
:104E1E006C656473204F4E20006C656473206F4682
:104E2E004620002077656C636F6D65202020005052
:104E3E004C4541534520454E54455220544845203B
:104E4E000050415353574F5244007472792061679A
:104E5E0061696E006D617820617474656D707400A7
:104E6E006F7574206F662072616E67650074656D74
:104E7E0070206973203A000000000000000000005E
:104E8E0001020203030303040404040404040405DE
:104E9E0005050505050505050505050505050506B3
:104EAE000606060606060606060606060606060694
:104EBE000606060606060606060606060606060783
:104ECE000707070707070707070707070707070764
:104EDE000707070707070707070707070707070754
:104EEE000707070707070707070707070707070744
:104EFE000707070707070707070707070707070833
:104F0E000808080808080808080808080808080813
:104F1E000808080808080808080808080808080803
:104F2E0008080808080808080808080808080808F3
:104F3E0008080808080808080808080808080808E3
:104F4E0008080808080808080808080808080808D3
:104F5E0008080808080808080808080808080808C3
:104F6E0008080808080808080808080808080808B3
:104F7E00080808080808080808080808080808317A
:104F8E003131310100000008000000400000000037
:104F9E0001000000040000010203040506070809D1
:084FAE000A0B0C0D0E0F1000A0
:00000001FF
